:100000000C9463000C948B000C948B000C948B006C
:100010000C948B000C948B000C948B000C948B0034
:100020000C948B000C948B000C948B000C948B0024
:100030000C948B000C948B000C948B000C948B0014
:100040000C94E8010C948B000C9430030C948B00FE
:100050000C948B000C948B000C948B000C948B00F4
:100060000C948B000C948B000000000024002700EF
:100070002A0000000000250028002B0000000000DE
:1000800023002600290004040404040404040202DA
:100090000202020203030303030301020408102007
:1000A0004080010204081020010204081020000012
:1000B0000007000201000003040600000000000029
:1000C00000008401B50411241FBECFEFD8E0DEBFCD
:1000D000CDBF11E0A0E0B1E0E2E6FBE002C0059098
:1000E0000D92A031B107D9F712E0A0E1B1E001C053
:1000F0001D92A330B107E1F710E0C6ECD0E004C0D8
:100100002297FE010E94AB05C23CD107C9F70E94AD
:10011000A9010C94AF050C940000FC0188279927D5
:10012000E89421912032E9F3293010F02E30C8F301
:100130002B3241F02D3239F4689404C00E94DD0066
:10014000820F911D219120532A30C0F31EF4909507
:1001500081959F4F0895009731F4DA018D919C911C
:10016000009709F40EC0DC01FB013D91219122238F
:1001700019F03217C9F3FACF332331F4DA011D92A3
:100180001C928827992708951197AF93BF93FB017D
:100190003D912191321771F4332321F48827992757
:1001A000119702C01E921196FA01A193B0839F91FC
:1001B0008F910895222369F7EACF7AE0979F902DD7
:1001C000879F802D910D11240895FC0112821182C8
:1001D00080E287831086E55BFF4F80E481938FE3A5
:1001E0008083EC54F04012861082148213821682AF
:1001F000158281E081870895FC01728361830895EF
:10020000CF93DF93EC0118821616170684F56A3037
:10021000710569F16D30710521F06115710539F1D4
:1002200010C08A85FE01E80FF11D13861A861E8212
:100230001D8281E089878883CE010B969C838B8306
:1002400016C08A85FE01E80FF11D63878F5F8A87DC
:10025000C45BDF4F9881CC54D040891740F01A8698
:1002600018821C821B821E821D8281E08987888100
:10027000813029F4E981FA81309709F00995888164
:10028000DF91CF910895CF93DF93EC01888188238C
:10029000F9F0813019F020E030E005C09E01255FC3
:1002A0003F4F82E088838985882359F0BE01695FCA
:1002B0007F4FAE014B5F5F4FC9010E94AB009C8333
:1002C0008B838B819C81892B19F0198681E001C079
:1002D00080E0DF91CF9108950E9443010895CF936C
:1002E000DF93EC010E944301882319F420E030E001
:1002F00007C081E089878B819C810E948D009C01D1
:10030000C901DF91CF91089580E191E00E94E5005D
:10031000089509C080EF91E00E947A04BC0180E159
:1003200091E00E94000180EF91E00E946604882322
:1003300089F7089580EF91E040E052EC61E070E0D1
:100340000E946D0380E191E060EB71E00E94FC008F
:1003500008950E9430020E949A010E948901FDCFF7
:1003600030C080E191E00E946F0190935E01809324
:100370005D0180E191E00E946F01909360018093A4
:100380005F0180E191E00E946F0190936201809390
:10039000610160915D0170915E01809100010E9498
:1003A0006A0260915F0170916001809104010E9476
:1003B0006A026091610170916201809102010E9464
:1003C0006A0280E191E00E946C01882351F6089551
:1003D0001F920F920FB60F9211242F933F938F937A
:1003E0009F93AF93BF938091670190916801A09113
:1003F0006901B0916A0130916B010196A11DB11D97
:10040000232F2D5F2D3720F02D570196A11DB11DF3
:1004100020936B018093670190936801A093690119
:10042000B0936A018091630190916401A09165018C
:10043000B09166010196A11DB11D80936301909357
:100440006401A0936501B0936601BF91AF919F9144
:100450008F913F912F910F900FBE0F901F90189585
:10046000789484B5826084BD84B5816084BD85B58F
:10047000826085BD85B5816085BDEEE6F0E0808156
:1004800081608083E1E8F0E0808182608083808108
:1004900081608083E0E8F0E0808181608083E1EB2F
:1004A000F0E0808184608083E0EBF0E08081816017
:1004B0008083EAE7F0E080818460808380818260CD
:1004C00080838081816080838081806880831092B6
:1004D000C10008951F93CF93DF93182FEB0161E0C4
:1004E0000E94C302E12FF0E0E255FF4F8491833078
:1004F00051F480918000806880938000D0938900BF
:10050000C09388003CC0843051F4809180008062A8
:1005100080938000D0938B00C0938A0030C08130DC
:1005200039F4209729F184B5806884BDC7BD27C000
:10053000823039F42097E1F084B5806284BDC8BD73
:100540001EC0863041F48091B00080688093B00076
:10055000C093B30014C0873041F48091B000806232
:100560008093B000C093B4000AC0C038D1051CF419
:10057000812F60E002C0812F61E00E94E302DF91E1
:10058000CF911F910895282F30E0C90186569F4FC3
:10059000FC0194912A573F4FF9018491882391F0EF
:1005A000E82FF0E0EE0FFF1FE859FF4FA591B4913F
:1005B000662329F48C91909589238C9308958C91CE
:1005C000892B8C930895482F50E0CA0182559F4F84
:1005D000FC012491CA0186569F4FFC0194914A5711
:1005E0005F4FFA0134913323D1F1222331F12330CB
:1005F00021F4809180008F7705C0243031F4809100
:1006000080008F7D8093800018C0213019F484B55C
:100610008F7704C0223021F484B58F7D84BD0DC056
:10062000263021F48091B0008F7705C0273029F45F
:100630008091B0008F7D8093B000E32FF0E0EE0F4B
:10064000FF1FEE58FF4FA591B491662329F48C91BA
:10065000909589238C9308958C91892B8C93089580
:100660001F920F920FB60F9211242F933F934F9327
:100670005F936F937F938F939F93AF93BF93EF930A
:10068000FF934091C600E091EC01F091ED01CF01A4
:10069000019660E870E00E9445059C018091EE01A2
:1006A0009091EF012817390739F0E459FE4F408344
:1006B0003093ED012093EC01FF91EF91BF91AF9149
:1006C0009F918F917F916F915F914F913F912F916A
:1006D0000F900FBE0F901F9018955F926F927F92B0
:1006E0008F929F92AF92BF92CF92DF92EF92FF9242
:1006F0000F931F93CF93DF93EC013A014B014134E9
:1007000082E458078FE0680780E078070CF07FC02C
:1007100060E874E88EE190E0A40193010E947A05FC
:100720002150304040405040CA01B90122E030E041
:1007300040E050E00E947A0559016A01A601950146
:10074000209530954095509594E0220F331F441F1B
:10075000551F9A95D1F760E074E284EF90E00E9413
:100760007A05CA01B9012FEF30E040E050E00E9465
:100770002605A40193010E947A05C90181509F4F6B
:10078000181619061CF4522E5A9403C0552453947B
:10079000521A60E079E08DE390E0A40193010E9499
:1007A0007A052150304040405040CA01B90122E052
:1007B00030E040E050E00E947A0520953095409569
:1007C000509583E0220F331F441F551F8A95D1F7A0
:1007D00060E074E284EF90E00E947A05CA01B901FA
:1007E0002FEF30E040E050E00E942605A401930185
:1007F0000E947A05C90181509F4F181619061CF4F2
:10080000822F815002C081E0821B851500F5E885AA
:10081000F98581E090E00A8802C0880F991F0A9448
:10082000E2F7808360E079E08DE390E0A40193013A
:100830000E947A052150304040405040CA01B90121
:1008400022E030E040E050E00E947A0504C0E885F4
:10085000F98510829501EC81FD813083EE81FF8165
:100860002083EA85FB85208141E050E0CA010E84A7
:1008700002C0880F991F0A94E2F7282B2083EA858B
:10088000FB852081CA010F8402C0880F991F0A943A
:10089000E2F7282B2083EA85FB858081088802C047
:1008A000440F551F0A94E2F7842B8083DF91CF9188
:1008B0001F910F91FF90EF90DF90CF90BF90AF907E
:1008C0009F908F907F906F905F900895DC011296BB
:1008D000ED91FC911397E058FF4F819191918058D1
:1008E0009F4F20813181821B930B60E870E00E9452
:1008F00045050895CF93DF93DC011296ED91FC91AD
:100900001397EF01CE57DF4F48815981E058FF4FD1
:1009100080819181E058F0408417950719F42FEFFA
:100920003FEF0CC0E40FF51F2081CA01019660E87B
:1009300070E00E9445059983888330E0C901DF910A
:10094000CF910895FC01A085B18521898C9190E01B
:10095000022E02C0959587950A94E2F780FFF6CFA4
:100960000484F585E02D608308958AE091E09093FA
:10097000F1018093F0018CE691E09093F301809374
:10098000F20185EC90E09093F5018093F40184EC02
:1009900090E09093F7018093F60180EC90E09093C3
:1009A000F9018093F80181EC90E09093FB01809332
:1009B000FA0186EC90E09093FD018093FC0184E0C5
:1009C0008093FE0183E08093FF0187E08093000223
:1009D00085E08093010281E08093020208950F93E5
:1009E0001F93CF93DF938C01EB0109C02196D801AF
:1009F000ED91FC910190F081E02DC801099568818D
:100A00006623A1F7DF91CF911F910F910895EF9287
:100A1000FF920F931F93CF93DF938C017B01EA0129
:100A20000CC0D7016D917D01D801ED91FC91019031
:100A3000F081E02DC80109952197209791F7DF916A
:100A4000CF911F910F91FF90EF900895629FD00179
:100A5000739FF001829FE00DF11D649FE00DF11D79
:100A6000929FF00D839FF00D749FF00D659FF00D28
:100A70009927729FB00DE11DF91F639FB00DE11D15
:100A8000F91FBD01CF011124089597FB092E0726F8
:100A90000AD077FD04D049D006D000201AF4709512
:100AA00061957F4F0895F6F7909581959F4F089532
:100AB000A1E21A2EAA1BBB1BFD010DC0AA1FBB1F62
:100AC000EE1FFF1FA217B307E407F50720F0A21BD4
:100AD000B30BE40BF50B661F771F881F991F1A9441
:100AE00069F760957095809590959B01AC01BD016B
:100AF000CF01089597FB092E05260ED057FD04D08F
:100B0000D7DF0AD0001C38F45095409530952195D8
:100B10003F4F4F4F5F4F0895F6F790958095709532
:100B200061957F4F8F4F9F4F0895AA1BBB1B51E1CB
:100B300007C0AA1FBB1FA617B70710F0A61BB70B4D
:100B4000881F991F5A95A9F780959095BC01CD01F2
:100B50000895EE0FFF1F0590F491E02D0994F8948D
:020B6000FFCFC5
:100B620005000300060000000000A204EF040705D0
:00000001FF
